{
  "_format": "hh-sol-artifact-1",
  "contractName": "Voting",
  "sourceName": "contracts/Voting.sol",
  "abi": [
    {
      "inputs": [],
      "stateMutability": "nonpayable",
      "type": "constructor"
    },
    {
      "anonymous": false,
      "inputs": [
        {
          "indexed": true,
          "internalType": "uint256",
          "name": "electionId",
          "type": "uint256"
        },
        {
          "indexed": true,
          "internalType": "uint256",
          "name": "candidateId",
          "type": "uint256"
        },
        {
          "indexed": false,
          "internalType": "string",
          "name": "name",
          "type": "string"
        },
        {
          "indexed": false,
          "internalType": "string",
          "name": "party",
          "type": "string"
        }
      ],
      "name": "CandidateAdded",
      "type": "event"
    },
    {
      "anonymous": false,
      "inputs": [
        {
          "indexed": true,
          "internalType": "uint256",
          "name": "electionId",
          "type": "uint256"
        },
        {
          "indexed": false,
          "internalType": "string",
          "name": "title",
          "type": "string"
        },
        {
          "indexed": false,
          "internalType": "uint256",
          "name": "startTime",
          "type": "uint256"
        },
        {
          "indexed": false,
          "internalType": "uint256",
          "name": "endTime",
          "type": "uint256"
        }
      ],
      "name": "ElectionCreated",
      "type": "event"
    },
    {
      "anonymous": false,
      "inputs": [
        {
          "indexed": true,
          "internalType": "uint256",
          "name": "electionId",
          "type": "uint256"
        },
        {
          "indexed": false,
          "internalType": "bool",
          "name": "isActive",
          "type": "bool"
        }
      ],
      "name": "ElectionStatusChanged",
      "type": "event"
    },
    {
      "anonymous": false,
      "inputs": [
        {
          "indexed": true,
          "internalType": "uint256",
          "name": "electionId",
          "type": "uint256"
        },
        {
          "indexed": true,
          "internalType": "address",
          "name": "voter",
          "type": "address"
        },
        {
          "indexed": true,
          "internalType": "uint256",
          "name": "candidateId",
          "type": "uint256"
        }
      ],
      "name": "VoteCast",
      "type": "event"
    },
    {
      "anonymous": false,
      "inputs": [
        {
          "indexed": true,
          "internalType": "uint256",
          "name": "electionId",
          "type": "uint256"
        },
        {
          "indexed": true,
          "internalType": "address",
          "name": "voter",
          "type": "address"
        }
      ],
      "name": "VoterRegistered",
      "type": "event"
    },
    {
      "inputs": [
        {
          "internalType": "uint256",
          "name": "_electionId",
          "type": "uint256"
        },
        {
          "internalType": "string",
          "name": "_name",
          "type": "string"
        },
        {
          "internalType": "string",
          "name": "_party",
          "type": "string"
        },
        {
          "internalType": "string",
          "name": "_imageHash",
          "type": "string"
        }
      ],
      "name": "addCandidate",
      "outputs": [
        {
          "internalType": "uint256",
          "name": "",
          "type": "uint256"
        }
      ],
      "stateMutability": "nonpayable",
      "type": "function"
    },
    {
      "inputs": [],
      "name": "admin",
      "outputs": [
        {
          "internalType": "address",
          "name": "",
          "type": "address"
        }
      ],
      "stateMutability": "view",
      "type": "function"
    },
    {
      "inputs": [
        {
          "internalType": "uint256",
          "name": "_electionId",
          "type": "uint256"
        },
        {
          "internalType": "address[]",
          "name": "_voters",
          "type": "address[]"
        }
      ],
      "name": "batchRegisterVoters",
      "outputs": [],
      "stateMutability": "nonpayable",
      "type": "function"
    },
    {
      "inputs": [
        {
          "internalType": "uint256",
          "name": "",
          "type": "uint256"
        },
        {
          "internalType": "uint256",
          "name": "",
          "type": "uint256"
        }
      ],
      "name": "candidateIds",
      "outputs": [
        {
          "internalType": "uint256",
          "name": "",
          "type": "uint256"
        }
      ],
      "stateMutability": "view",
      "type": "function"
    },
    {
      "inputs": [
        {
          "internalType": "uint256",
          "name": "",
          "type": "uint256"
        },
        {
          "internalType": "uint256",
          "name": "",
          "type": "uint256"
        }
      ],
      "name": "candidates",
      "outputs": [
        {
          "internalType": "uint256",
          "name": "id",
          "type": "uint256"
        },
        {
          "internalType": "string",
          "name": "name",
          "type": "string"
        },
        {
          "internalType": "string",
          "name": "party",
          "type": "string"
        },
        {
          "internalType": "string",
          "name": "imageHash",
          "type": "string"
        },
        {
          "internalType": "uint256",
          "name": "voteCount",
          "type": "uint256"
        }
      ],
      "stateMutability": "view",
      "type": "function"
    },
    {
      "inputs": [
        {
          "internalType": "uint256",
          "name": "_electionId",
          "type": "uint256"
        },
        {
          "internalType": "uint256",
          "name": "_candidateId",
          "type": "uint256"
        }
      ],
      "name": "castVote",
      "outputs": [],
      "stateMutability": "nonpayable",
      "type": "function"
    },
    {
      "inputs": [
        {
          "internalType": "string",
          "name": "_title",
          "type": "string"
        },
        {
          "internalType": "string",
          "name": "_description",
          "type": "string"
        },
        {
          "internalType": "uint256",
          "name": "_startTime",
          "type": "uint256"
        },
        {
          "internalType": "uint256",
          "name": "_endTime",
          "type": "uint256"
        }
      ],
      "name": "createElection",
      "outputs": [
        {
          "internalType": "uint256",
          "name": "",
          "type": "uint256"
        }
      ],
      "stateMutability": "nonpayable",
      "type": "function"
    },
    {
      "inputs": [],
      "name": "electionCount",
      "outputs": [
        {
          "internalType": "uint256",
          "name": "",
          "type": "uint256"
        }
      ],
      "stateMutability": "view",
      "type": "function"
    },
    {
      "inputs": [
        {
          "internalType": "uint256",
          "name": "",
          "type": "uint256"
        }
      ],
      "name": "elections",
      "outputs": [
        {
          "internalType": "uint256",
          "name": "id",
          "type": "uint256"
        },
        {
          "internalType": "string",
          "name": "title",
          "type": "string"
        },
        {
          "internalType": "string",
          "name": "description",
          "type": "string"
        },
        {
          "internalType": "uint256",
          "name": "startTime",
          "type": "uint256"
        },
        {
          "internalType": "uint256",
          "name": "endTime",
          "type": "uint256"
        },
        {
          "internalType": "bool",
          "name": "isActive",
          "type": "bool"
        },
        {
          "internalType": "uint256",
          "name": "candidateCount",
          "type": "uint256"
        },
        {
          "internalType": "uint256",
          "name": "totalVotes",
          "type": "uint256"
        }
      ],
      "stateMutability": "view",
      "type": "function"
    },
    {
      "inputs": [],
      "name": "getAllElections",
      "outputs": [
        {
          "components": [
            {
              "internalType": "uint256",
              "name": "id",
              "type": "uint256"
            },
            {
              "internalType": "string",
              "name": "title",
              "type": "string"
            },
            {
              "internalType": "string",
              "name": "description",
              "type": "string"
            },
            {
              "internalType": "uint256",
              "name": "startTime",
              "type": "uint256"
            },
            {
              "internalType": "uint256",
              "name": "endTime",
              "type": "uint256"
            },
            {
              "internalType": "bool",
              "name": "isActive",
              "type": "bool"
            },
            {
              "internalType": "uint256",
              "name": "candidateCount",
              "type": "uint256"
            },
            {
              "internalType": "uint256",
              "name": "totalVotes",
              "type": "uint256"
            }
          ],
          "internalType": "struct Voting.Election[]",
          "name": "",
          "type": "tuple[]"
        }
      ],
      "stateMutability": "view",
      "type": "function"
    },
    {
      "inputs": [
        {
          "internalType": "uint256",
          "name": "_electionId",
          "type": "uint256"
        }
      ],
      "name": "getCandidates",
      "outputs": [
        {
          "components": [
            {
              "internalType": "uint256",
              "name": "id",
              "type": "uint256"
            },
            {
              "internalType": "string",
              "name": "name",
              "type": "string"
            },
            {
              "internalType": "string",
              "name": "party",
              "type": "string"
            },
            {
              "internalType": "string",
              "name": "imageHash",
              "type": "string"
            },
            {
              "internalType": "uint256",
              "name": "voteCount",
              "type": "uint256"
            }
          ],
          "internalType": "struct Voting.Candidate[]",
          "name": "",
          "type": "tuple[]"
        }
      ],
      "stateMutability": "view",
      "type": "function"
    },
    {
      "inputs": [
        {
          "internalType": "uint256",
          "name": "_electionId",
          "type": "uint256"
        }
      ],
      "name": "getElection",
      "outputs": [
        {
          "components": [
            {
              "internalType": "uint256",
              "name": "id",
              "type": "uint256"
            },
            {
              "internalType": "string",
              "name": "title",
              "type": "string"
            },
            {
              "internalType": "string",
              "name": "description",
              "type": "string"
            },
            {
              "internalType": "uint256",
              "name": "startTime",
              "type": "uint256"
            },
            {
              "internalType": "uint256",
              "name": "endTime",
              "type": "uint256"
            },
            {
              "internalType": "bool",
              "name": "isActive",
              "type": "bool"
            },
            {
              "internalType": "uint256",
              "name": "candidateCount",
              "type": "uint256"
            },
            {
              "internalType": "uint256",
              "name": "totalVotes",
              "type": "uint256"
            }
          ],
          "internalType": "struct Voting.Election",
          "name": "",
          "type": "tuple"
        }
      ],
      "stateMutability": "view",
      "type": "function"
    },
    {
      "inputs": [
        {
          "internalType": "uint256",
          "name": "_electionId",
          "type": "uint256"
        }
      ],
      "name": "getResults",
      "outputs": [
        {
          "components": [
            {
              "internalType": "uint256",
              "name": "id",
              "type": "uint256"
            },
            {
              "internalType": "string",
              "name": "name",
              "type": "string"
            },
            {
              "internalType": "string",
              "name": "party",
              "type": "string"
            },
            {
              "internalType": "string",
              "name": "imageHash",
              "type": "string"
            },
            {
              "internalType": "uint256",
              "name": "voteCount",
              "type": "uint256"
            }
          ],
          "internalType": "struct Voting.Candidate[]",
          "name": "",
          "type": "tuple[]"
        },
        {
          "internalType": "uint256",
          "name": "totalVotes",
          "type": "uint256"
        }
      ],
      "stateMutability": "view",
      "type": "function"
    },
    {
      "inputs": [
        {
          "internalType": "uint256",
          "name": "_electionId",
          "type": "uint256"
        },
        {
          "internalType": "address",
          "name": "_voter",
          "type": "address"
        }
      ],
      "name": "getVoterStatus",
      "outputs": [
        {
          "internalType": "bool",
          "name": "isRegistered",
          "type": "bool"
        },
        {
          "internalType": "bool",
          "name": "hasVoted",
          "type": "bool"
        },
        {
          "internalType": "uint256",
          "name": "votedCandidateId",
          "type": "uint256"
        }
      ],
      "stateMutability": "view",
      "type": "function"
    },
    {
      "inputs": [
        {
          "internalType": "address",
          "name": "_addr",
          "type": "address"
        }
      ],
      "name": "isAdmin",
      "outputs": [
        {
          "internalType": "bool",
          "name": "",
          "type": "bool"
        }
      ],
      "stateMutability": "view",
      "type": "function"
    },
    {
      "inputs": [
        {
          "internalType": "uint256",
          "name": "_electionId",
          "type": "uint256"
        },
        {
          "internalType": "address",
          "name": "_voter",
          "type": "address"
        }
      ],
      "name": "registerVoter",
      "outputs": [],
      "stateMutability": "nonpayable",
      "type": "function"
    },
    {
      "inputs": [
        {
          "internalType": "uint256",
          "name": "_electionId",
          "type": "uint256"
        }
      ],
      "name": "toggleElectionStatus",
      "outputs": [],
      "stateMutability": "nonpayable",
      "type": "function"
    },
    {
      "inputs": [
        {
          "internalType": "address",
          "name": "_newAdmin",
          "type": "address"
        }
      ],
      "name": "transferAdmin",
      "outputs": [],
      "stateMutability": "nonpayable",
      "type": "function"
    },
    {
      "inputs": [
        {
          "internalType": "uint256",
          "name": "",
          "type": "uint256"
        },
        {
          "internalType": "address",
          "name": "",
          "type": "address"
        }
      ],
      "name": "voters",
      "outputs": [
        {
          "internalType": "bool",
          "name": "isRegistered",
          "type": "bool"
        },
        {
          "internalType": "bool",
          "name": "hasVoted",
          "type": "bool"
        },
        {
          "internalType": "uint256",
          "name": "votedCandidateId",
          "type": "uint256"
        },
        {
          "internalType": "uint256",
          "name": "electionId",
          "type": "uint256"
        }
      ],
      "stateMutability": "view",
      "type": "function"
    }
  ],
  "bytecode": "0x608060405234801561001057600080fd5b50600080546001600160a01b031916331790556124b3806100326000396000f3fe608060405234801561001057600080fd5b50600436106101215760003560e01c80637fd5f268116100ad5780639d710777116100715780639d710777146102f05780639e31906314610310578063ce4a274314610378578063f497d15f1461038b578063f851a4401461039e57600080fd5b80637fd5f2681461023757806381a60c0d1461024c578063942f56bd1461026d57806394c790bb146102d4578063997d2830146102e757600080fd5b80633e39a7a5116100f45780633e39a7a5146101985780635e6fef01146101b857806375829def146101df5780637ad36e84146101f25780637de142421461021357600080fd5b80631332badb1461012657806316ed95c81461013b57806324d7806c1461014e5780632c0a3f8914610185575b600080fd5b610139610134366004611c7d565b6103c9565b005b610139610149366004611cfc565b6105b4565b61017061015c366004611d31565b6000546001600160a01b0391821691161490565b60405190151581526020015b60405180910390f35b610139610193366004611d53565b61066e565b6101ab6101a6366004611cfc565b610965565b60405161017c9190611e6a565b6101cb6101c6366004611cfc565b610c64565b60405161017c989796959493929190611e7d565b6101396101ed366004611d31565b610db9565b610205610200366004611f7a565b610e4d565b60405190815260200161017c565b610226610221366004611d53565b611040565b60405161017c959493929190611fee565b61023f611212565b60405161017c91906120bb565b61025f61025a366004611cfc565b611438565b60405161017c92919061211d565b6102b761027b36600461213f565b60009182526004602090815260408084206001600160a01b039390931684529190529020805460019091015460ff808316936101009093041691565b60408051931515845291151560208401529082015260600161017c565b6101396102e236600461213f565b61174b565b61020560015481565b6103036102fe366004611cfc565b6118be565b60405161017c919061216b565b61035661031e36600461213f565b600460209081526000928352604080842090915290825290208054600182015460029092015460ff8083169361010090930416919084565b604080519415158552921515602085015291830152606082015260800161017c565b61020561038636600461217e565b611a81565b610205610399366004611d53565b611c05565b6000546103b1906001600160a01b031681565b6040516001600160a01b03909116815260200161017c565b6000546001600160a01b031633146103fc5760405162461bcd60e51b81526004016103f390612210565b60405180910390fd5b8260008111801561040f57506001548111155b61042b5760405162461bcd60e51b81526004016103f390612252565b60005b828110156105ad5760008581526004602052604081209085858481811061045757610457612289565b905060200201602081019061046c9190611d31565b6001600160a01b0316815260208101919091526040016000205460ff1661059b57604080516080810182526001815260006020808301829052828401829052606083018990528882526004905291822090918686858181106104d0576104d0612289565b90506020020160208101906104e59190611d31565b6001600160a01b031681526020808201929092526040908101600020835181549385015161ffff1990941690151561ff0019161761010093151593909302929092178255820151600182015560609091015160029091015583838281811061054f5761054f612289565b90506020020160208101906105649190611d31565b6001600160a01b0316857ff45b8429c36d478f9a6d081c4811a819b98aa5b608588bed9d406405cf28247360405160405180910390a35b806105a5816122b5565b91505061042e565b5050505050565b6000546001600160a01b031633146105de5760405162461bcd60e51b81526004016103f390612210565b806000811180156105f157506001548111155b61060d5760405162461bcd60e51b81526004016103f390612252565b600082815260026020908152604091829020600501805460ff8082161560ff199092168217909255925192161515825283917f550243ff1a84cc99f7f82bfd2e29380f33523ca72cde0783141c25ed8f4dede3910160405180910390a25050565b8160008111801561068157506001548111155b61069d5760405162461bcd60e51b81526004016103f390612252565b6000838152600260205260409020600581015484919060ff166106fb5760405162461bcd60e51b8152602060048201526016602482015275456c656374696f6e206973206e6f742061637469766560501b60448201526064016103f3565b806003015442101561074f5760405162461bcd60e51b815260206004820152601c60248201527f456c656374696f6e20686173206e6f742073746172746564207965740000000060448201526064016103f3565b80600401544211156107985760405162461bcd60e51b8152602060048201526012602482015271115b1958dd1a5bdb881a185cc8195b99195960721b60448201526064016103f3565b60008581526004602090815260408083203384529091529020805460ff1661081a5760405162461bcd60e51b815260206004820152602f60248201527f596f7520617265206e6f74207265676973746572656420746f20766f7465206960448201526e37103a3434b99032b632b1ba34b7b760891b60648201526084016103f3565b8054610100900460ff161561086a5760405162461bcd60e51b8152602060048201526016602482015275165bdd481a185d9948185b1c9958591e481d9bdd195960521b60448201526064016103f3565b60008511801561088b57506000868152600260205260409020600601548511155b6108cb5760405162461bcd60e51b8152602060048201526011602482015270496e76616c69642063616e64696461746560781b60448201526064016103f3565b805461ff0019166101001781556001810185905560008681526003602090815260408083208884529091528120600401805491610907836122b5565b90915550506000868152600260205260408120600701805491610929836122b5565b90915550506040518590339088907f2acce567deca3aabf56327adbb4524bd5318936eaefa69e3a5208ffda0cfec0990600090a4505050505050565b60608160008111801561097a57506001548111155b6109965760405162461bcd60e51b81526004016103f390612252565b600083815260026020526040812060060154908167ffffffffffffffff8111156109c2576109c2611ed7565b604051908082528060200260200182016040528015610a2557816020015b610a126040518060a0016040528060008152602001606081526020016060815260200160608152602001600081525090565b8152602001906001900390816109e05790505b50905060015b828111610c59576000868152600360209081526040808320848452825291829020825160a08101909352805483526001810180549192840191610a6d906122ce565b80601f0160208091040260200160405190810160405280929190818152602001828054610a99906122ce565b8015610ae65780601f10610abb57610100808354040283529160200191610ae6565b820191906000526020600020905b815481529060010190602001808311610ac957829003601f168201915b50505050508152602001600282018054610aff906122ce565b80601f0160208091040260200160405190810160405280929190818152602001828054610b2b906122ce565b8015610b785780601f10610b4d57610100808354040283529160200191610b78565b820191906000526020600020905b815481529060010190602001808311610b5b57829003601f168201915b50505050508152602001600382018054610b91906122ce565b80601f0160208091040260200160405190810160405280929190818152602001828054610bbd906122ce565b8015610c0a5780601f10610bdf57610100808354040283529160200191610c0a565b820191906000526020600020905b815481529060010190602001808311610bed57829003601f168201915b5050505050815260200160048201548152505082600183610c2b9190612302565b81518110610c3b57610c3b612289565b60200260200101819052508080610c51906122b5565b915050610a2b565b509250505b50919050565b60026020526000908152604090208054600182018054919291610c86906122ce565b80601f0160208091040260200160405190810160405280929190818152602001828054610cb2906122ce565b8015610cff5780601f10610cd457610100808354040283529160200191610cff565b820191906000526020600020905b815481529060010190602001808311610ce257829003601f168201915b505050505090806002018054610d14906122ce565b80601f0160208091040260200160405190810160405280929190818152602001828054610d40906122ce565b8015610d8d5780601f10610d6257610100808354040283529160200191610d8d565b820191906000526020600020905b815481529060010190602001808311610d7057829003601f168201915b50505060038401546004850154600586015460068701546007909701549596929591945060ff16925088565b6000546001600160a01b03163314610de35760405162461bcd60e51b81526004016103f390612210565b6001600160a01b038116610e2b5760405162461bcd60e51b815260206004820152600f60248201526e496e76616c6964206164647265737360881b60448201526064016103f3565b600080546001600160a01b0319166001600160a01b0392909216919091179055565b600080546001600160a01b03163314610e785760405162461bcd60e51b81526004016103f390612210565b818310610ed25760405162461bcd60e51b815260206004820152602260248201527f53746172742074696d65206d757374206265206265666f726520656e642074696044820152616d6560f01b60648201526084016103f3565b428211610f215760405162461bcd60e51b815260206004820152601e60248201527f456e642074696d65206d75737420626520696e2074686520667574757265000060448201526064016103f3565b60018054906000610f31836122b5565b909155505060408051610100810182526001805480835260208084018a81528486018a9052606085018990526080850188905260a08501849052600060c0860181905260e08601819052928352600290915293902082518155925191929190820190610f9d908261236a565b5060408201516002820190610fb2908261236a565b50606082015160038201556080820151600482015560a082015160058201805460ff191691151591909117905560c0820151600682015560e0909101516007909101556001546040517fe7a0aae5d733e07e246dea86213a1ac1b0aa8554bde889bb75c12752f44e53d99061102c9088908790879061242a565b60405180910390a250600154949350505050565b60036020908152600092835260408084209091529082529020805460018201805491929161106d906122ce565b80601f0160208091040260200160405190810160405280929190818152602001828054611099906122ce565b80156110e65780601f106110bb576101008083540402835291602001916110e6565b820191906000526020600020905b8154815290600101906020018083116110c957829003601f168201915b5050505050908060020180546110fb906122ce565b80601f0160208091040260200160405190810160405280929190818152602001828054611127906122ce565b80156111745780601f1061114957610100808354040283529160200191611174565b820191906000526020600020905b81548152906001019060200180831161115757829003601f168201915b505050505090806003018054611189906122ce565b80601f01602080910402602001604051908101604052809291908181526020018280546111b5906122ce565b80156112025780601f106111d757610100808354040283529160200191611202565b820191906000526020600020905b8154815290600101906020018083116111e557829003601f168201915b5050505050908060040154905085565b6060600060015467ffffffffffffffff81111561123157611231611ed7565b60405190808252806020026020018201604052801561126a57816020015b611257611c36565b81526020019060019003908161124f5790505b50905060015b6001548111610c5e576002600082815260200190815260200160002060405180610100016040529081600082015481526020016001820180546112b2906122ce565b80601f01602080910402602001604051908101604052809291908181526020018280546112de906122ce565b801561132b5780601f106113005761010080835404028352916020019161132b565b820191906000526020600020905b81548152906001019060200180831161130e57829003601f168201915b50505050508152602001600282018054611344906122ce565b80601f0160208091040260200160405190810160405280929190818152602001828054611370906122ce565b80156113bd5780601f10611392576101008083540402835291602001916113bd565b820191906000526020600020905b8154815290600101906020018083116113a057829003601f168201915b50505091835250506003820154602082015260048201546040820152600582015460ff16151560608201526006820154608082015260079091015460a0909101528261140a600184612302565b8151811061141a5761141a612289565b60200260200101819052508080611430906122b5565b915050611270565b606060008260008111801561144f57506001548111155b61146b5760405162461bcd60e51b81526004016103f390612252565b600084815260026020526040812060060154908167ffffffffffffffff81111561149757611497611ed7565b6040519080825280602002602001820160405280156114fa57816020015b6114e76040518060a0016040528060008152602001606081526020016060815260200160608152602001600081525090565b8152602001906001900390816114b55790505b50905060015b82811161172e576000878152600360209081526040808320848452825291829020825160a08101909352805483526001810180549192840191611542906122ce565b80601f016020809104026020016040519081016040528092919081815260200182805461156e906122ce565b80156115bb5780601f10611590576101008083540402835291602001916115bb565b820191906000526020600020905b81548152906001019060200180831161159e57829003601f168201915b505050505081526020016002820180546115d4906122ce565b80601f0160208091040260200160405190810160405280929190818152602001828054611600906122ce565b801561164d5780601f106116225761010080835404028352916020019161164d565b820191906000526020600020905b81548152906001019060200180831161163057829003601f168201915b50505050508152602001600382018054611666906122ce565b80601f0160208091040260200160405190810160405280929190818152602001828054611692906122ce565b80156116df5780601f106116b4576101008083540402835291602001916116df565b820191906000526020600020905b8154815290600101906020018083116116c257829003601f168201915b50505050508152602001600482015481525050826001836117009190612302565b8151811061171057611710612289565b60200260200101819052508080611726906122b5565b915050611500565b506000958652600260205260409095206007015494959350505050565b6000546001600160a01b031633146117755760405162461bcd60e51b81526004016103f390612210565b8160008111801561178857506001548111155b6117a45760405162461bcd60e51b81526004016103f390612252565b60008381526004602090815260408083206001600160a01b038616845290915290205460ff16156118175760405162461bcd60e51b815260206004820152601860248201527f566f74657220616c72656164792072656769737465726564000000000000000060448201526064016103f3565b60408051608081018252600180825260006020808401828152848601838152606086018a81528a8552600484528785206001600160a01b038b16808752945287852096518754935161ffff1990941690151561ff001916176101009315159390930292909217865551938501939093559151600290930192909255915185917ff45b8429c36d478f9a6d081c4811a819b98aa5b608588bed9d406405cf28247391a3505050565b6118c6611c36565b816000811180156118d957506001548111155b6118f55760405162461bcd60e51b81526004016103f390612252565b60026000848152602001908152602001600020604051806101000160405290816000820154815260200160018201805461192e906122ce565b80601f016020809104026020016040519081016040528092919081815260200182805461195a906122ce565b80156119a75780601f1061197c576101008083540402835291602001916119a7565b820191906000526020600020905b81548152906001019060200180831161198a57829003601f168201915b505050505081526020016002820180546119c0906122ce565b80601f01602080910402602001604051908101604052809291908181526020018280546119ec906122ce565b8015611a395780601f10611a0e57610100808354040283529160200191611a39565b820191906000526020600020905b815481529060010190602001808311611a1c57829003601f168201915b50505091835250506003820154602082015260048201546040820152600582015460ff16151560608201526006820154608082015260079091015460a0909101529392505050565b600080546001600160a01b03163314611aac5760405162461bcd60e51b81526004016103f390612210565b84600081118015611abf57506001548111155b611adb5760405162461bcd60e51b81526004016103f390612252565b6000868152600260205260408120600601805491611af8836122b5565b9091555050600086815260026020908152604080832060060154815160a0810183528181528084018a81528184018a905260608201899052608082018690528b865260038552838620838752909452919093208151815591519091906001820190611b63908261236a565b5060408201516002820190611b78908261236a565b5060608201516003820190611b8d908261236a565b506080919091015160049091015560008781526005602090815260408083208054600181018255908452919092200182905551819088907f503cfceb0fb2178c5fb47ff394c816e4075abc8066c3dcb16d08a76847ee6e1690611bf3908a908a9061244f565b60405180910390a39695505050505050565b60056020528160005260406000208181548110611c2157600080fd5b90600052602060002001600091509150505481565b604051806101000160405280600081526020016060815260200160608152602001600081526020016000815260200160001515815260200160008152602001600081525090565b600080600060408486031215611c9257600080fd5b83359250602084013567ffffffffffffffff80821115611cb157600080fd5b818601915086601f830112611cc557600080fd5b813581811115611cd457600080fd5b8760208260051b8501011115611ce957600080fd5b6020830194508093505050509250925092565b600060208284031215611d0e57600080fd5b5035919050565b80356001600160a01b0381168114611d2c57600080fd5b919050565b600060208284031215611d4357600080fd5b611d4c82611d15565b9392505050565b60008060408385031215611d6657600080fd5b50508035926020909101359150565b6000815180845260005b81811015611d9b57602081850181015186830182015201611d7f565b506000602082860101526020601f19601f83011685010191505092915050565b600082825180855260208086019550808260051b84010181860160005b84811015611e5d57601f19868403018952815160a081518552858201518187870152611e0682870182611d75565b91505060408083015186830382880152611e208382611d75565b9250505060608083015186830382880152611e3b8382611d75565b6080948501519790940196909652505098840198925090830190600101611dd8565b5090979650505050505050565b602081526000611d4c6020830184611dbb565b60006101008a8352806020840152611e978184018b611d75565b90508281036040840152611eab818a611d75565b60608401989098525050608081019490945291151560a084015260c083015260e0909101529392505050565b634e487b7160e01b600052604160045260246000fd5b600082601f830112611efe57600080fd5b813567ffffffffffffffff80821115611f1957611f19611ed7565b604051601f8301601f19908116603f01168101908282118183101715611f4157611f41611ed7565b81604052838152866020858801011115611f5a57600080fd5b836020870160208301376000602085830101528094505050505092915050565b60008060008060808587031215611f9057600080fd5b843567ffffffffffffffff80821115611fa857600080fd5b611fb488838901611eed565b95506020870135915080821115611fca57600080fd5b50611fd787828801611eed565b949794965050505060408301359260600135919050565b85815260a06020820152600061200760a0830187611d75565b82810360408401526120198187611d75565b9050828103606084015261202d8186611d75565b9150508260808301529695505050505050565b600061010082518452602083015181602086015261206082860182611d75565b9150506040830151848203604086015261207a8282611d75565b915050606083015160608501526080830151608085015260a0830151151560a085015260c083015160c085015260e083015160e08501528091505092915050565b6000602080830181845280855180835260408601915060408160051b870101925083870160005b8281101561211057603f198886030184526120fe858351612040565b945092850192908501906001016120e2565b5092979650505050505050565b6040815260006121306040830185611dbb565b90508260208301529392505050565b6000806040838503121561215257600080fd5b8235915061216260208401611d15565b90509250929050565b602081526000611d4c6020830184612040565b6000806000806080858703121561219457600080fd5b84359350602085013567ffffffffffffffff808211156121b357600080fd5b6121bf88838901611eed565b945060408701359150808211156121d557600080fd5b6121e188838901611eed565b935060608701359150808211156121f757600080fd5b5061220487828801611eed565b91505092959194509250565b60208082526022908201527f4f6e6c792061646d696e2063616e20706572666f726d2074686973206163746960408201526137b760f11b606082015260800190565b60208082526017908201527f456c656374696f6e20646f6573206e6f74206578697374000000000000000000604082015260600190565b634e487b7160e01b600052603260045260246000fd5b634e487b7160e01b600052601160045260246000fd5b6000600182016122c7576122c761229f565b5060010190565b600181811c908216806122e257607f821691505b602082108103610c5e57634e487b7160e01b600052602260045260246000fd5b818103818111156123155761231561229f565b92915050565b601f82111561236557600081815260208120601f850160051c810160208610156123425750805b601f850160051c820191505b818110156123615782815560010161234e565b5050505b505050565b815167ffffffffffffffff81111561238457612384611ed7565b6123988161239284546122ce565b8461231b565b602080601f8311600181146123cd57600084156123b55750858301515b600019600386901b1c1916600185901b178555612361565b600085815260208120601f198616915b828110156123fc578886015182559484019460019091019084016123dd565b508582101561241a5787850151600019600388901b60f8161c191681555b5050505050600190811b01905550565b60608152600061243d6060830186611d75565b60208301949094525060400152919050565b6040815260006124626040830185611d75565b82810360208401526124748185611d75565b9594505050505056fea2646970667358221220896e4ac5cf6edf10683f4445168adbbee304c0a1822a72a6d6b31620a56fc95464736f6c63430008130033",
  "linkReferences": {},
  "deployedLinkReferences": {}
}